{
  "contractName": "SupplyChain",
  "abi": [
    {
      "inputs": [],
      "payable": false,
      "stateMutability": "nonpayable",
      "type": "constructor"
    },
    {
      "anonymous": false,
      "inputs": [
        {
          "indexed": false,
          "internalType": "uint256",
          "name": "_product_id",
          "type": "uint256"
        },
        {
          "indexed": false,
          "internalType": "string",
          "name": "zipcode",
          "type": "string"
        },
        {
          "indexed": false,
          "internalType": "string",
          "name": "currentAddr",
          "type": "string"
        },
        {
          "indexed": false,
          "internalType": "string",
          "name": "locType",
          "type": "string"
        }
      ],
      "name": "AddProduct",
      "type": "event"
    },
    {
      "constant": true,
      "inputs": [],
      "name": "_p_id",
      "outputs": [
        {
          "internalType": "uint256",
          "name": "",
          "type": "uint256"
        }
      ],
      "payable": false,
      "stateMutability": "view",
      "type": "function"
    },
    {
      "constant": true,
      "inputs": [],
      "name": "_t_id",
      "outputs": [
        {
          "internalType": "uint256",
          "name": "",
          "type": "uint256"
        }
      ],
      "payable": false,
      "stateMutability": "view",
      "type": "function"
    },
    {
      "constant": true,
      "inputs": [],
      "name": "_u_id",
      "outputs": [
        {
          "internalType": "uint256",
          "name": "",
          "type": "uint256"
        }
      ],
      "payable": false,
      "stateMutability": "view",
      "type": "function"
    },
    {
      "constant": true,
      "inputs": [
        {
          "internalType": "uint256",
          "name": "",
          "type": "uint256"
        }
      ],
      "name": "products",
      "outputs": [
        {
          "internalType": "string",
          "name": "_product_name",
          "type": "string"
        },
        {
          "internalType": "uint256",
          "name": "_product_cost",
          "type": "uint256"
        },
        {
          "internalType": "string",
          "name": "_product_specs",
          "type": "string"
        },
        {
          "internalType": "string",
          "name": "_product_manufacturer",
          "type": "string"
        },
        {
          "internalType": "uint256",
          "name": "_product_date",
          "type": "uint256"
        },
        {
          "internalType": "string",
          "name": "_product_zipcode",
          "type": "string"
        },
        {
          "internalType": "string",
          "name": "_product_address",
          "type": "string"
        },
        {
          "internalType": "string",
          "name": "_product_location",
          "type": "string"
        }
      ],
      "payable": false,
      "stateMutability": "view",
      "type": "function"
    },
    {
      "constant": false,
      "inputs": [
        {
          "internalType": "string",
          "name": "name",
          "type": "string"
        },
        {
          "internalType": "uint256",
          "name": "p_cost",
          "type": "uint256"
        },
        {
          "internalType": "string",
          "name": "p_specs",
          "type": "string"
        },
        {
          "internalType": "string",
          "name": "manufacturer",
          "type": "string"
        },
        {
          "internalType": "string",
          "name": "_zipcode",
          "type": "string"
        },
        {
          "internalType": "string",
          "name": "_addr",
          "type": "string"
        },
        {
          "internalType": "string",
          "name": "_locType",
          "type": "string"
        }
      ],
      "name": "newProduct",
      "outputs": [
        {
          "internalType": "uint256",
          "name": "",
          "type": "uint256"
        }
      ],
      "payable": false,
      "stateMutability": "nonpayable",
      "type": "function"
    },
    {
      "constant": true,
      "inputs": [
        {
          "internalType": "uint256",
          "name": "prod_id",
          "type": "uint256"
        }
      ],
      "name": "getProduct_details",
      "outputs": [
        {
          "components": [
            {
              "internalType": "string",
              "name": "_product_name",
              "type": "string"
            },
            {
              "internalType": "uint256",
              "name": "_product_cost",
              "type": "uint256"
            },
            {
              "internalType": "string",
              "name": "_product_specs",
              "type": "string"
            },
            {
              "internalType": "string",
              "name": "_product_manufacturer",
              "type": "string"
            },
            {
              "internalType": "uint256",
              "name": "_product_date",
              "type": "uint256"
            },
            {
              "internalType": "string",
              "name": "_product_zipcode",
              "type": "string"
            },
            {
              "internalType": "string",
              "name": "_product_address",
              "type": "string"
            },
            {
              "internalType": "string",
              "name": "_product_location",
              "type": "string"
            }
          ],
          "internalType": "struct SupplyChain.product",
          "name": "",
          "type": "tuple"
        }
      ],
      "payable": false,
      "stateMutability": "view",
      "type": "function"
    },
    {
      "constant": true,
      "inputs": [
        {
          "internalType": "uint256",
          "name": "_pId",
          "type": "uint256"
        }
      ],
      "name": "getRecentProductLocation",
      "outputs": [
        {
          "internalType": "uint256",
          "name": "",
          "type": "uint256"
        },
        {
          "internalType": "string",
          "name": "",
          "type": "string"
        },
        {
          "internalType": "string",
          "name": "",
          "type": "string"
        },
        {
          "internalType": "string",
          "name": "",
          "type": "string"
        }
      ],
      "payable": false,
      "stateMutability": "view",
      "type": "function"
    },
    {
      "constant": true,
      "inputs": [
        {
          "internalType": "uint256",
          "name": "_pId",
          "type": "uint256"
        }
      ],
      "name": "getAllProductLocation",
      "outputs": [
        {
          "components": [
            {
              "internalType": "uint256",
              "name": "_product_id",
              "type": "uint256"
            },
            {
              "internalType": "string",
              "name": "zipcode",
              "type": "string"
            },
            {
              "internalType": "string",
              "name": "currentAddr",
              "type": "string"
            },
            {
              "internalType": "string",
              "name": "locType",
              "type": "string"
            }
          ],
          "internalType": "struct SupplyChain.Location[]",
          "name": "",
          "type": "tuple[]"
        }
      ],
      "payable": false,
      "stateMutability": "view",
      "type": "function"
    },
    {
      "constant": true,
      "inputs": [],
      "name": "getAllProductIDs",
      "outputs": [
        {
          "internalType": "uint256[]",
          "name": "",
          "type": "uint256[]"
        }
      ],
      "payable": false,
      "stateMutability": "view",
      "type": "function"
    },
    {
      "constant": false,
      "inputs": [],
      "name": "putPorductID",
      "outputs": [
        {
          "internalType": "uint256",
          "name": "",
          "type": "uint256"
        }
      ],
      "payable": false,
      "stateMutability": "nonpayable",
      "type": "function"
    }
  ],
  "bytecode": "0x608060405260008055600060015560006002553480156200001f57600080fd5b5033600360006101000a81548173ffffffffffffffffffffffffffffffffffffffff021916908373ffffffffffffffffffffffffffffffffffffffff1602179055506200006b620003d6565b6040518060800160405280607981526020016040518060400160405280600981526020017f5f7a6970636f646531000000000000000000000000000000000000000000000081525081526020016040518060400160405280600d81526020017f5f63757272656e7441646472310000000000000000000000000000000000000081525081526020016040518060400160405280600981526020017f5f6c6f6354797065310000000000000000000000000000000000000000000000815250815250905062000138620003d6565b6040518060800160405280607a81526020016040518060400160405280600981526020017f5f7a6970636f646532000000000000000000000000000000000000000000000081525081526020016040518060400160405280600d81526020017f5f63757272656e7441646472320000000000000000000000000000000000000081525081526020016040518060400160405280600981526020017f5f6c6f635479706532000000000000000000000000000000000000000000000081525081525090506005600060658152602001908152602001600020829080600181540180825580915050906001820390600052602060002090600402016000909192909190915060008201518160000155602082015181600101908051906020019062000263929190620003fe565b50604082015181600201908051906020019062000282929190620003fe565b506060820151816003019080519060200190620002a1929190620003fe565b50505050600560006065815260200190815260200160002081908060018154018082558091505090600182039060005260206000209060040201600090919290919091506000820151816000015560208201518160010190805190602001906200030d929190620003fe565b5060408201518160020190805190602001906200032c929190620003fe565b5060608201518160030190805190602001906200034b929190620003fe565b505050508160066000606581526020019081526020016000206000820151816000015560208201518160010190805190602001906200038c929190620003fe565b506040820151816002019080519060200190620003ab929190620003fe565b506060820151816003019080519060200190620003ca929190620003fe565b509050505050620004ad565b6040518060800160405280600081526020016060815260200160608152602001606081525090565b828054600181600116156101000203166002900490600052602060002090601f016020900481019282601f106200044157805160ff191683800117855562000472565b8280016001018555821562000472579182015b828111156200047157825182559160200191906001019062000454565b5b50905062000481919062000485565b5090565b620004aa91905b80821115620004a65760008160009055506001016200048c565b5090565b90565b611dc680620004bd6000396000f3fe608060405234801561001057600080fd5b506004361061009e5760003560e01c80635fe73f3f116100665780635fe73f3f1461015d5780637acc0b201461017b5780638c4c42cd146101b2578063cc7239a7146101d0578063fe607761146102005761009e565b806326d20f94146100a35780633248cfc4146100c1578063567b3a7a146100f1578063577d0c001461010f5780635df5e73c1461013f575b600080fd5b6100ab610233565b6040516100b89190611b97565b60405180910390f35b6100db60048036036100d69190810190611754565b610239565b6040516100e89190611b75565b60405180910390f35b6100f961070c565b6040516101069190611b97565b60405180910390f35b61012960048036036101249190810190611626565b610712565b6040516101369190611b97565b60405180910390f35b610147610a92565b6040516101549190611b97565b60405180910390f35b610165610b13565b6040516101729190611b97565b60405180910390f35b61019560048036036101909190810190611754565b610b19565b6040516101a9989796959493929190611acd565b60405180910390f35b6101ba610ef1565b6040516101c79190611aab565b60405180910390f35b6101ea60048036036101e59190810190611754565b610f86565b6040516101f79190611a89565b60405180910390f35b61021a60048036036102159190810190611754565b6111e8565b60405161022a9493929190611bb2565b60405180910390f35b60005481565b61024161142b565b3373ffffffffffffffffffffffffffffffffffffffff166004600084815260200190815260200160002060009054906101000a900473ffffffffffffffffffffffffffffffffffffffff1673ffffffffffffffffffffffffffffffffffffffff16146102ac57600080fd5b3373ffffffffffffffffffffffffffffffffffffffff16600360009054906101000a900473ffffffffffffffffffffffffffffffffffffffff1673ffffffffffffffffffffffffffffffffffffffff161461030657600080fd5b6007600083815260200190815260200160002060405180610100016040529081600082018054600181600116156101000203166002900480601f0160208091040260200160405190810160405280929190818152602001828054600181600116156101000203166002900480156103be5780601f10610393576101008083540402835291602001916103be565b820191906000526020600020905b8154815290600101906020018083116103a157829003601f168201915b5050505050815260200160018201548152602001600282018054600181600116156101000203166002900480601f01602080910402602001604051908101604052809291908181526020018280546001816001161561010002031660029004801561046a5780601f1061043f5761010080835404028352916020019161046a565b820191906000526020600020905b81548152906001019060200180831161044d57829003601f168201915b50505050508152602001600382018054600181600116156101000203166002900480601f01602080910402602001604051908101604052809291908181526020018280546001816001161561010002031660029004801561050c5780601f106104e15761010080835404028352916020019161050c565b820191906000526020600020905b8154815290600101906020018083116104ef57829003601f168201915b5050505050815260200160048201548152602001600582018054600181600116156101000203166002900480601f0160208091040260200160405190810160405280929190818152602001828054600181600116156101000203166002900480156105b85780601f1061058d576101008083540402835291602001916105b8565b820191906000526020600020905b81548152906001019060200180831161059b57829003601f168201915b50505050508152602001600682018054600181600116156101000203166002900480601f01602080910402602001604051908101604052809291908181526020018280546001816001161561010002031660029004801561065a5780601f1061062f5761010080835404028352916020019161065a565b820191906000526020600020905b81548152906001019060200180831161063d57829003601f168201915b50505050508152602001600782018054600181600116156101000203166002900480601f0160208091040260200160405190810160405280929190818152602001828054600181600116156101000203166002900480156106fc5780601f106106d1576101008083540402835291602001916106fc565b820191906000526020600020905b8154815290600101906020018083116106df57829003601f168201915b5050505050815250509050919050565b60025481565b60008060008081548092919060010191905055905088600760008381526020019081526020016000206000019080519060200190610751929190611470565b5087600760008381526020019081526020016000206001018190555086600760008381526020019081526020016000206002019080519060200190610797929190611470565b50856007600083815260200190815260200160002060030190805190602001906107c2929190611470565b5042600760008381526020019081526020016000206004018190555084600760008381526020019081526020016000206005019080519060200190610808929190611470565b5083600760008381526020019081526020016000206006019080519060200190610833929190611470565b508260076000838152602001908152602001600020600701908051906020019061085e929190611470565b503373ffffffffffffffffffffffffffffffffffffffff166004600083815260200190815260200160002060009054906101000a9050505061089e6114f0565b604051806080016040528083815260200187815260200186815260200185815250905080600660008481526020019081526020016000206000820151816000015560208201518160010190805190602001906108fb929190611518565b506040820151816002019080519060200190610918929190611518565b506060820151816003019080519060200190610935929190611518565b5090505060056000838152602001908152602001600020819080600181540180825580915050906001820390600052602060002090600402016000909192909190915060008201518160000155602082015181600101908051906020019061099e929190611518565b5060408201518160020190805190602001906109bb929190611518565b5060608201518160030190805190602001906109d8929190611518565b505050507f7f47c94bc912889406c69db40d9b149d798c54035608270f8e11f052c373321882878787604051610a119493929190611bb2565b60405180910390a1600860003373ffffffffffffffffffffffffffffffffffffffff1673ffffffffffffffffffffffffffffffffffffffff1681526020019081526020016000208290806001815401808255809150509060018203906000526020600020016000909192909190915055508192505050979650505050505050565b6000600160005401600081905550600860003373ffffffffffffffffffffffffffffffffffffffff1673ffffffffffffffffffffffffffffffffffffffff1681526020019081526020016000206000549080600181540180825580915050906001820390600052602060002001600090919290919091505550600054905090565b60015481565b6007602052806000526040600020600091509050806000018054600181600116156101000203166002900480601f016020809104026020016040519081016040528092919081815260200182805460018160011615610100020316600290048015610bc55780601f10610b9a57610100808354040283529160200191610bc5565b820191906000526020600020905b815481529060010190602001808311610ba857829003601f168201915b505050505090806001015490806002018054600181600116156101000203166002900480601f016020809104026020016040519081016040528092919081815260200182805460018160011615610100020316600290048015610c695780601f10610c3e57610100808354040283529160200191610c69565b820191906000526020600020905b815481529060010190602001808311610c4c57829003601f168201915b505050505090806003018054600181600116156101000203166002900480601f016020809104026020016040519081016040528092919081815260200182805460018160011615610100020316600290048015610d075780601f10610cdc57610100808354040283529160200191610d07565b820191906000526020600020905b815481529060010190602001808311610cea57829003601f168201915b505050505090806004015490806005018054600181600116156101000203166002900480601f016020809104026020016040519081016040528092919081815260200182805460018160011615610100020316600290048015610dab5780601f10610d8057610100808354040283529160200191610dab565b820191906000526020600020905b815481529060010190602001808311610d8e57829003601f168201915b505050505090806006018054600181600116156101000203166002900480601f016020809104026020016040519081016040528092919081815260200182805460018160011615610100020316600290048015610e495780601f10610e1e57610100808354040283529160200191610e49565b820191906000526020600020905b815481529060010190602001808311610e2c57829003601f168201915b505050505090806007018054600181600116156101000203166002900480601f016020809104026020016040519081016040528092919081815260200182805460018160011615610100020316600290048015610ee75780601f10610ebc57610100808354040283529160200191610ee7565b820191906000526020600020905b815481529060010190602001808311610eca57829003601f168201915b5050505050905088565b6060600860003373ffffffffffffffffffffffffffffffffffffffff1673ffffffffffffffffffffffffffffffffffffffff168152602001908152602001600020805480602002602001604051908101604052809291908181526020018280548015610f7c57602002820191906000526020600020905b815481526020019060010190808311610f68575b5050505050905090565b606060056000838152602001908152602001600020805480602002602001604051908101604052809291908181526020016000905b828210156111dd578382906000526020600020906004020160405180608001604052908160008201548152602001600182018054600181600116156101000203166002900480601f0160208091040260200160405190810160405280929190818152602001828054600181600116156101000203166002900480156110815780601f1061105657610100808354040283529160200191611081565b820191906000526020600020905b81548152906001019060200180831161106457829003601f168201915b50505050508152602001600282018054600181600116156101000203166002900480601f0160208091040260200160405190810160405280929190818152602001828054600181600116156101000203166002900480156111235780601f106110f857610100808354040283529160200191611123565b820191906000526020600020905b81548152906001019060200180831161110657829003601f168201915b50505050508152602001600382018054600181600116156101000203166002900480601f0160208091040260200160405190810160405280929190818152602001828054600181600116156101000203166002900480156111c55780601f1061119a576101008083540402835291602001916111c5565b820191906000526020600020905b8154815290600101906020018083116111a857829003601f168201915b50505050508152505081526020019060010190610fbb565b505050509050919050565b600060608060606006600086815260200190815260200160002060000154600660008781526020019081526020016000206001016006600088815260200190815260200160002060020160066000898152602001908152602001600020600301828054600181600116156101000203166002900480601f0160208091040260200160405190810160405280929190818152602001828054600181600116156101000203166002900480156112dd5780601f106112b2576101008083540402835291602001916112dd565b820191906000526020600020905b8154815290600101906020018083116112c057829003601f168201915b50505050509250818054600181600116156101000203166002900480601f0160208091040260200160405190810160405280929190818152602001828054600181600116156101000203166002900480156113795780601f1061134e57610100808354040283529160200191611379565b820191906000526020600020905b81548152906001019060200180831161135c57829003601f168201915b50505050509150808054600181600116156101000203166002900480601f0160208091040260200160405190810160405280929190818152602001828054600181600116156101000203166002900480156114155780601f106113ea57610100808354040283529160200191611415565b820191906000526020600020905b8154815290600101906020018083116113f857829003601f168201915b5050505050905093509350935093509193509193565b60405180610100016040528060608152602001600081526020016060815260200160608152602001600081526020016060815260200160608152602001606081525090565b828054600181600116156101000203166002900490600052602060002090601f016020900481019282601f106114b157805160ff19168380011785556114df565b828001600101855582156114df579182015b828111156114de5782518255916020019190600101906114c3565b5b5090506114ec9190611598565b5090565b6040518060800160405280600081526020016060815260200160608152602001606081525090565b828054600181600116156101000203166002900490600052602060002090601f016020900481019282601f1061155957805160ff1916838001178555611587565b82800160010185558215611587579182015b8281111561158657825182559160200191906001019061156b565b5b5090506115949190611598565b5090565b6115ba91905b808211156115b657600081600090555060010161159e565b5090565b90565b600082601f8301126115ce57600080fd5b81356115e16115dc82611c39565b611c0c565b915080825260208301602083018583830111156115fd57600080fd5b611608838284611d19565b50505092915050565b60008135905061162081611d6c565b92915050565b600080600080600080600060e0888a03121561164157600080fd5b600088013567ffffffffffffffff81111561165b57600080fd5b6116678a828b016115bd565b97505060206116788a828b01611611565b965050604088013567ffffffffffffffff81111561169557600080fd5b6116a18a828b016115bd565b955050606088013567ffffffffffffffff8111156116be57600080fd5b6116ca8a828b016115bd565b945050608088013567ffffffffffffffff8111156116e757600080fd5b6116f38a828b016115bd565b93505060a088013567ffffffffffffffff81111561171057600080fd5b61171c8a828b016115bd565b92505060c088013567ffffffffffffffff81111561173957600080fd5b6117458a828b016115bd565b91505092959891949750929550565b60006020828403121561176657600080fd5b600061177484828501611611565b91505092915050565b60006117898383611927565b905092915050565b600061179d8383611a6b565b60208301905092915050565b60006117b482611c85565b6117be8185611ccb565b9350836020820285016117d085611c65565b8060005b8581101561180c57848403895281516117ed858261177d565b94506117f883611cb1565b925060208a019950506001810190506117d4565b50829750879550505050505092915050565b600061182982611c90565b6118338185611cdc565b935061183e83611c75565b8060005b8381101561186f5781516118568882611791565b975061186183611cbe565b925050600181019050611842565b5085935050505092915050565b600061188782611ca6565b6118918185611cfe565b93506118a1818560208601611d28565b6118aa81611d5b565b840191505092915050565b60006118c082611c9b565b6118ca8185611ced565b93506118da818560208601611d28565b6118e381611d5b565b840191505092915050565b60006118f982611c9b565b6119038185611cfe565b9350611913818560208601611d28565b61191c81611d5b565b840191505092915050565b600060808301600083015161193f6000860182611a6b565b506020830151848203602086015261195782826118b5565b9150506040830151848203604086015261197182826118b5565b9150506060830151848203606086015261198b82826118b5565b9150508091505092915050565b60006101008301600083015184820360008601526119b682826118b5565b91505060208301516119cb6020860182611a6b565b50604083015184820360408601526119e382826118b5565b915050606083015184820360608601526119fd82826118b5565b9150506080830151611a126080860182611a6b565b5060a083015184820360a0860152611a2a82826118b5565b91505060c083015184820360c0860152611a4482826118b5565b91505060e083015184820360e0860152611a5e82826118b5565b9150508091505092915050565b611a7481611d0f565b82525050565b611a8381611d0f565b82525050565b60006020820190508181036000830152611aa381846117a9565b905092915050565b60006020820190508181036000830152611ac5818461181e565b905092915050565b6000610100820190508181036000830152611ae8818b6118ee565b9050611af7602083018a611a7a565b8181036040830152611b0981896118ee565b90508181036060830152611b1d81886118ee565b9050611b2c6080830187611a7a565b81810360a0830152611b3e81866118ee565b905081810360c0830152611b5281856118ee565b905081810360e0830152611b6681846118ee565b90509998505050505050505050565b60006020820190508181036000830152611b8f8184611998565b905092915050565b6000602082019050611bac6000830184611a7a565b92915050565b6000608082019050611bc76000830187611a7a565b8181036020830152611bd9818661187c565b90508181036040830152611bed818561187c565b90508181036060830152611c01818461187c565b905095945050505050565b6000604051905081810181811067ffffffffffffffff82111715611c2f57600080fd5b8060405250919050565b600067ffffffffffffffff821115611c5057600080fd5b601f19601f8301169050602081019050919050565b6000819050602082019050919050565b6000819050602082019050919050565b600081519050919050565b600081519050919050565b600081519050919050565b600081519050919050565b6000602082019050919050565b6000602082019050919050565b600082825260208201905092915050565b600082825260208201905092915050565b600082825260208201905092915050565b600082825260208201905092915050565b6000819050919050565b82818337600083830152505050565b60005b83811015611d46578082015181840152602081019050611d2b565b83811115611d55576000848401525b50505050565b6000601f19601f8301169050919050565b611d7581611d0f565b8114611d8057600080fd5b5056fea365627a7a72315820f9cf3a913f4eba0cb9472a6ec56cb269d45236d258e8ad87b4e4358ad83a884d6c6578706572696d656e74616cf564736f6c63430005100040",
  "source": "pragma solidity 0.5.16;\npragma experimental ABIEncoderV2;\n\ncontract SupplyChain {\n   \n    uint public _p_id =0;\n    uint public _u_id =0;\n    uint public _t_id=0;\n\n    address _owner;\n     struct product {\n\n        string _product_name;\n        uint   _product_cost;\n        string _product_specs;\n        string _product_manufacturer;\n        uint256 _product_date;\n        string _product_zipcode;\n        string _product_address;\n        string _product_location;\n      \n    }\n\n    struct Location {\n\n         uint _product_id;\n         string zipcode;\n         string currentAddr;\n         string locType;// wareshouse, seller, transit\n       \n\n    }\n\n    struct track_product {\n      \n        uint _product_id;\n        uint _owner_id;\n        address _product_owner;\n        uint _timeStamp;\n        Location location;\n\n    }\n\n\n    event AddProduct(uint _product_id, string zipcode, string currentAddr, string locType);\n\n    mapping(uint => address) prodToOwnerMapping; //prod to owner mapping\n\n    mapping(uint => Location[]) tracks;\n\n    mapping(uint => Location) currentLocation; //product current location..\n\n    mapping(uint => product) public products; // prod id and product mapping.\n\n    mapping(address => uint256[]) userToProdIDs;\n\n    constructor() public {\n       \n        _owner = msg.sender;\n\n        Location memory loc1 = Location(121, \"_zipcode1\", \"_currentAddr1\", \"_locType1\");\n        Location memory loc2 = Location(122, \"_zipcode2\", \"_currentAddr2\", \"_locType2\");\n\n        tracks[101].push(loc1);\n        tracks[101].push(loc2);\n\n        currentLocation[101] = loc1;\n\n    }\n\n    function newProduct(string memory name ,uint p_cost ,string memory p_specs ,string memory manufacturer, string memory _zipcode, string memory _addr,\n                        string memory _locType) public returns (uint) {\n   \n            uint product_id = _p_id++;\n           \n            products[product_id]._product_name = name;\n            products[product_id]._product_cost = p_cost;\n            products[product_id]._product_specs =p_specs;\n            products[product_id]._product_manufacturer =manufacturer;\n            products[product_id]._product_date = now;\n            products[product_id]._product_zipcode =_zipcode;\n            products[product_id]._product_address =_addr;\n            products[product_id]._product_location = _locType; //assuming product owner enter the product.\n\n            prodToOwnerMapping[product_id] == msg.sender;\n\n            Location memory currentLoc = Location(product_id, _zipcode, _addr, _locType);\n            currentLocation[product_id] = currentLoc;\n            tracks[product_id].push(currentLoc);\n\n            emit AddProduct(product_id, _zipcode,  _addr,  _locType);\n\n            userToProdIDs[msg.sender].push(product_id);\n\n            return product_id;\n\n    }\n\n    \n    function getProduct_details(uint prod_id) public view returns (product memory) {\n     \n            require(prodToOwnerMapping[prod_id] == msg.sender);\n            require(_owner == msg.sender);\n            \n            return products[prod_id];\n\n    }\n\n\n    function getRecentProductLocation(uint _pId) public view returns(uint, string memory, string memory, string memory) {\n            \n           // require(prodToOwnerMapping[_pId] == msg.sender);\n            //require(_owner == msg.sender);\n            return (currentLocation[_pId]._product_id, currentLocation[_pId].zipcode, currentLocation[_pId].currentAddr,  currentLocation[_pId].locType) ;     \n    }\n    \n   \n   function getAllProductLocation(uint _pId) public view returns(Location[] memory) {\n\n          //  require(prodToOwnerMapping[_pId] == msg.sender);\n            //require(_owner == msg.sender);\n            return tracks[_pId];\n            //  return (currentLocation[_pId]._product_id, currentLocation[_pId].zipcode, currentLocation[_pId].currentAddr,  currentLocation[_pId].locType) ;     \n    }\n\n    function getAllProductIDs() public view returns(uint256[] memory) {\n\n        // _p_id++;\n        // userToProdIDs[0x2d5C069fcb40dE03B09CC6Ce07bc46545aD404a5]=_p_id;\n        // _p_id++;\n        // userToProdIDs[0x2d5C069fcb40dE03B09CC6Ce07bc46545aD404a5]=_p_id;\n        // _p_id++;\n        // userToProdIDs[0x2d5C069fcb40dE03B09CC6Ce07bc46545aD404a5]=_p_id;\n        // _p_id++;\n        // userToProdIDs[0x2d5C069fcb40dE03B09CC6Ce07bc46545aD404a5]=_p_id;\n        // _p_id++;\n        // userToProdIDs[0x2d5C069fcb40dE03B09CC6Ce07bc46545aD404a5]=_p_id;\n        // _p_id++;\n\n        return  userToProdIDs[msg.sender];\n\n    }\n\n\n    function putPorductID() public returns(uint256) {\n                \n                _p_id = _p_id + 1;\n                userToProdIDs[msg.sender].push(_p_id);\n                return _p_id;\n                \n    }\n    \n}",
  "sourcePath": "/Users/conduent/assignments/IotaFoundationAssignment/contracts/SupplyChain.sol",
  "compiler": {
    "name": "solc",
    "version": "0.5.16+commit.9c3226ce.Emscripten.clang"
  },
  "schemaVersion": "3.4.0",
  "updatedAt": "2021-06-15T13:39:34.071Z",
  "networkType": "ethereum",
  "devdoc": {
    "methods": {}
  },
  "userdoc": {
    "methods": {}
  }
}