{
  "contractName": "supply_Chain",
  "abi": [
    {
      "inputs": [],
      "payable": false,
      "stateMutability": "nonpayable",
      "type": "constructor"
    },
    {
      "anonymous": false,
      "inputs": [
        {
          "indexed": false,
          "internalType": "uint256",
          "name": "_product_id",
          "type": "uint256"
        },
        {
          "indexed": false,
          "internalType": "string",
          "name": "zipcode",
          "type": "string"
        },
        {
          "indexed": false,
          "internalType": "string",
          "name": "currentAddr",
          "type": "string"
        },
        {
          "indexed": false,
          "internalType": "string",
          "name": "locType",
          "type": "string"
        }
      ],
      "name": "AddProduct",
      "type": "event"
    },
    {
      "constant": true,
      "inputs": [],
      "name": "_p_id",
      "outputs": [
        {
          "internalType": "uint256",
          "name": "",
          "type": "uint256"
        }
      ],
      "payable": false,
      "stateMutability": "view",
      "type": "function"
    },
    {
      "constant": true,
      "inputs": [],
      "name": "_t_id",
      "outputs": [
        {
          "internalType": "uint256",
          "name": "",
          "type": "uint256"
        }
      ],
      "payable": false,
      "stateMutability": "view",
      "type": "function"
    },
    {
      "constant": true,
      "inputs": [],
      "name": "_u_id",
      "outputs": [
        {
          "internalType": "uint256",
          "name": "",
          "type": "uint256"
        }
      ],
      "payable": false,
      "stateMutability": "view",
      "type": "function"
    },
    {
      "constant": true,
      "inputs": [
        {
          "internalType": "uint256",
          "name": "",
          "type": "uint256"
        }
      ],
      "name": "products",
      "outputs": [
        {
          "internalType": "string",
          "name": "_product_name",
          "type": "string"
        },
        {
          "internalType": "uint256",
          "name": "_product_cost",
          "type": "uint256"
        },
        {
          "internalType": "string",
          "name": "_product_specs",
          "type": "string"
        },
        {
          "internalType": "string",
          "name": "_product_review",
          "type": "string"
        },
        {
          "internalType": "address",
          "name": "_product_owner",
          "type": "address"
        },
        {
          "internalType": "uint256",
          "name": "_manufacture_date",
          "type": "uint256"
        }
      ],
      "payable": false,
      "stateMutability": "view",
      "type": "function"
    },
    {
      "constant": false,
      "inputs": [
        {
          "internalType": "string",
          "name": "name",
          "type": "string"
        },
        {
          "internalType": "uint256",
          "name": "p_cost",
          "type": "uint256"
        },
        {
          "internalType": "string",
          "name": "p_specs",
          "type": "string"
        },
        {
          "internalType": "string",
          "name": "p_review",
          "type": "string"
        },
        {
          "internalType": "string",
          "name": "_zipcode",
          "type": "string"
        },
        {
          "internalType": "string",
          "name": "_currentAddr",
          "type": "string"
        },
        {
          "internalType": "string",
          "name": "_locType",
          "type": "string"
        }
      ],
      "name": "newProduct",
      "outputs": [
        {
          "internalType": "uint256",
          "name": "",
          "type": "uint256"
        }
      ],
      "payable": false,
      "stateMutability": "nonpayable",
      "type": "function"
    },
    {
      "constant": true,
      "inputs": [
        {
          "internalType": "uint256",
          "name": "prod_id",
          "type": "uint256"
        }
      ],
      "name": "getProduct_details",
      "outputs": [
        {
          "internalType": "string",
          "name": "",
          "type": "string"
        },
        {
          "internalType": "uint256",
          "name": "",
          "type": "uint256"
        },
        {
          "internalType": "string",
          "name": "",
          "type": "string"
        },
        {
          "internalType": "string",
          "name": "",
          "type": "string"
        },
        {
          "internalType": "address",
          "name": "",
          "type": "address"
        },
        {
          "internalType": "uint256",
          "name": "",
          "type": "uint256"
        }
      ],
      "payable": false,
      "stateMutability": "view",
      "type": "function"
    },
    {
      "constant": true,
      "inputs": [
        {
          "internalType": "uint256",
          "name": "_pId",
          "type": "uint256"
        }
      ],
      "name": "getRecentProductLocation",
      "outputs": [
        {
          "internalType": "uint256",
          "name": "",
          "type": "uint256"
        },
        {
          "internalType": "string",
          "name": "",
          "type": "string"
        },
        {
          "internalType": "string",
          "name": "",
          "type": "string"
        },
        {
          "internalType": "string",
          "name": "",
          "type": "string"
        }
      ],
      "payable": false,
      "stateMutability": "view",
      "type": "function"
    },
    {
      "constant": true,
      "inputs": [
        {
          "internalType": "uint256",
          "name": "_pId",
          "type": "uint256"
        }
      ],
      "name": "getAllProductLocation",
      "outputs": [
        {
          "components": [
            {
              "internalType": "uint256",
              "name": "_product_id",
              "type": "uint256"
            },
            {
              "internalType": "string",
              "name": "zipcode",
              "type": "string"
            },
            {
              "internalType": "string",
              "name": "currentAddr",
              "type": "string"
            },
            {
              "internalType": "string",
              "name": "locType",
              "type": "string"
            }
          ],
          "internalType": "struct supply_Chain.Location[]",
          "name": "",
          "type": "tuple[]"
        }
      ],
      "payable": false,
      "stateMutability": "view",
      "type": "function"
    }
  ],
  "bytecode": "0x608060405260008055600060015560006002553480156200001f57600080fd5b5033600360006101000a81548173ffffffffffffffffffffffffffffffffffffffff021916908373ffffffffffffffffffffffffffffffffffffffff1602179055506200006b620003d6565b6040518060800160405280607981526020016040518060400160405280600981526020017f5f7a6970636f646531000000000000000000000000000000000000000000000081525081526020016040518060400160405280600d81526020017f5f63757272656e7441646472310000000000000000000000000000000000000081525081526020016040518060400160405280600981526020017f5f6c6f6354797065310000000000000000000000000000000000000000000000815250815250905062000138620003d6565b6040518060800160405280607a81526020016040518060400160405280600981526020017f5f7a6970636f646532000000000000000000000000000000000000000000000081525081526020016040518060400160405280600d81526020017f5f63757272656e7441646472320000000000000000000000000000000000000081525081526020016040518060400160405280600981526020017f5f6c6f635479706532000000000000000000000000000000000000000000000081525081525090506005600060658152602001908152602001600020829080600181540180825580915050906001820390600052602060002090600402016000909192909190915060008201518160000155602082015181600101908051906020019062000263929190620003fe565b50604082015181600201908051906020019062000282929190620003fe565b506060820151816003019080519060200190620002a1929190620003fe565b50505050600560006065815260200190815260200160002081908060018154018082558091505090600182039060005260206000209060040201600090919290919091506000820151816000015560208201518160010190805190602001906200030d929190620003fe565b5060408201518160020190805190602001906200032c929190620003fe565b5060608201518160030190805190602001906200034b929190620003fe565b505050508160066000606581526020019081526020016000206000820151816000015560208201518160010190805190602001906200038c929190620003fe565b506040820151816002019080519060200190620003ab929190620003fe565b506060820151816003019080519060200190620003ca929190620003fe565b509050505050620004ad565b6040518060800160405280600081526020016060815260200160608152602001606081525090565b828054600181600116156101000203166002900490600052602060002090601f016020900481019282601f106200044157805160ff191683800117855562000472565b8280016001018555821562000472579182015b828111156200047157825182559160200191906001019062000454565b5b50905062000481919062000485565b5090565b620004aa91905b80821115620004a65760008160009055506001016200048c565b5090565b90565b6118a880620004bd6000396000f3fe608060405234801561001057600080fd5b50600436106100885760003560e01c80635fe73f3f1161005b5780635fe73f3f1461012e5780637acc0b201461014c578063cc7239a714610181578063fe607761146101b157610088565b806326d20f941461008d5780633248cfc4146100ab578063567b3a7a146100e0578063577d0c00146100fe575b600080fd5b6100956101e4565b6040516100a29190611680565b60405180910390f35b6100c560048036036100c09190810190611377565b6101ea565b6040516100d796959493929190611594565b60405180910390f35b6100e8610549565b6040516100f59190611680565b60405180910390f35b61011860048036036101139190810190611249565b61054f565b6040516101259190611680565b60405180910390f35b61013661083a565b6040516101439190611680565b60405180910390f35b61016660048036036101619190810190611377565b610840565b6040516101789695949392919061160a565b60405180910390f35b61019b60048036036101969190810190611377565b610a64565b6040516101a89190611572565b60405180910390f35b6101cb60048036036101c69190810190611377565b610d8b565b6040516101db949392919061169b565b60405180910390f35b60005481565b606060006060806000803373ffffffffffffffffffffffffffffffffffffffff166004600089815260200190815260200160002060009054906101000a900473ffffffffffffffffffffffffffffffffffffffff1673ffffffffffffffffffffffffffffffffffffffff161461025f57600080fd5b3373ffffffffffffffffffffffffffffffffffffffff16600360009054906101000a900473ffffffffffffffffffffffffffffffffffffffff1673ffffffffffffffffffffffffffffffffffffffff16146102b957600080fd5b600760008881526020019081526020016000206000016007600089815260200190815260200160002060010154600760008a8152602001908152602001600020600201600760008b8152602001908152602001600020600301600760008c815260200190815260200160002060040160009054906101000a900473ffffffffffffffffffffffffffffffffffffffff16600760008d815260200190815260200160002060050154858054600181600116156101000203166002900480601f0160208091040260200160405190810160405280929190818152602001828054600181600116156101000203166002900480156103f55780601f106103ca576101008083540402835291602001916103f5565b820191906000526020600020905b8154815290600101906020018083116103d857829003601f168201915b50505050509550838054600181600116156101000203166002900480601f0160208091040260200160405190810160405280929190818152602001828054600181600116156101000203166002900480156104915780601f1061046657610100808354040283529160200191610491565b820191906000526020600020905b81548152906001019060200180831161047457829003601f168201915b50505050509350828054600181600116156101000203166002900480601f01602080910402602001604051908101604052809291908181526020018280546001816001161561010002031660029004801561052d5780601f106105025761010080835404028352916020019161052d565b820191906000526020600020905b81548152906001019060200180831161051057829003601f168201915b5050505050925095509550955095509550955091939550919395565b60025481565b6000806000808154809291906001019190505590508860076000838152602001908152602001600020600001908051906020019061058e929190611093565b50876007600083815260200190815260200160002060010181905550866007600083815260200190815260200160002060020190805190602001906105d4929190611093565b50856007600083815260200190815260200160002060030190805190602001906105ff929190611093565b50336007600083815260200190815260200160002060040160006101000a81548173ffffffffffffffffffffffffffffffffffffffff021916908373ffffffffffffffffffffffffffffffffffffffff1602179055504260076000838152602001908152602001600020600501819055503373ffffffffffffffffffffffffffffffffffffffff166004600083815260200190815260200160002060009054906101000a905050506106af611113565b6040518060800160405280838152602001878152602001868152602001858152509050806006600084815260200190815260200160002060008201518160000155602082015181600101908051906020019061070c92919061113b565b50604082015181600201908051906020019061072992919061113b565b50606082015181600301908051906020019061074692919061113b565b509050506005600083815260200190815260200160002081908060018154018082558091505090600182039060005260206000209060040201600090919290919091506000820151816000015560208201518160010190805190602001906107af92919061113b565b5060408201518160020190805190602001906107cc92919061113b565b5060608201518160030190805190602001906107e992919061113b565b505050507f7f47c94bc912889406c69db40d9b149d798c54035608270f8e11f052c373321882878787604051610822949392919061169b565b60405180910390a18192505050979650505050505050565b60015481565b6007602052806000526040600020600091509050806000018054600181600116156101000203166002900480601f0160208091040260200160405190810160405280929190818152602001828054600181600116156101000203166002900480156108ec5780601f106108c1576101008083540402835291602001916108ec565b820191906000526020600020905b8154815290600101906020018083116108cf57829003601f168201915b505050505090806001015490806002018054600181600116156101000203166002900480601f0160208091040260200160405190810160405280929190818152602001828054600181600116156101000203166002900480156109905780601f1061096557610100808354040283529160200191610990565b820191906000526020600020905b81548152906001019060200180831161097357829003601f168201915b505050505090806003018054600181600116156101000203166002900480601f016020809104026020016040519081016040528092919081815260200182805460018160011615610100020316600290048015610a2e5780601f10610a0357610100808354040283529160200191610a2e565b820191906000526020600020905b815481529060010190602001808311610a1157829003601f168201915b5050505050908060040160009054906101000a900473ffffffffffffffffffffffffffffffffffffffff16908060050154905086565b60603373ffffffffffffffffffffffffffffffffffffffff166004600084815260200190815260200160002060009054906101000a900473ffffffffffffffffffffffffffffffffffffffff1673ffffffffffffffffffffffffffffffffffffffff1614610ad157600080fd5b3373ffffffffffffffffffffffffffffffffffffffff16600360009054906101000a900473ffffffffffffffffffffffffffffffffffffffff1673ffffffffffffffffffffffffffffffffffffffff1614610b2b57600080fd5b60056000838152602001908152602001600020805480602002602001604051908101604052809291908181526020016000905b82821015610d80578382906000526020600020906004020160405180608001604052908160008201548152602001600182018054600181600116156101000203166002900480601f016020809104026020016040519081016040528092919081815260200182805460018160011615610100020316600290048015610c245780601f10610bf957610100808354040283529160200191610c24565b820191906000526020600020905b815481529060010190602001808311610c0757829003601f168201915b50505050508152602001600282018054600181600116156101000203166002900480601f016020809104026020016040519081016040528092919081815260200182805460018160011615610100020316600290048015610cc65780601f10610c9b57610100808354040283529160200191610cc6565b820191906000526020600020905b815481529060010190602001808311610ca957829003601f168201915b50505050508152602001600382018054600181600116156101000203166002900480601f016020809104026020016040519081016040528092919081815260200182805460018160011615610100020316600290048015610d685780601f10610d3d57610100808354040283529160200191610d68565b820191906000526020600020905b815481529060010190602001808311610d4b57829003601f168201915b50505050508152505081526020019060010190610b5e565b505050509050919050565b600060608060603373ffffffffffffffffffffffffffffffffffffffff166004600087815260200190815260200160002060009054906101000a900473ffffffffffffffffffffffffffffffffffffffff1673ffffffffffffffffffffffffffffffffffffffff1614610dfd57600080fd5b3373ffffffffffffffffffffffffffffffffffffffff16600360009054906101000a900473ffffffffffffffffffffffffffffffffffffffff1673ffffffffffffffffffffffffffffffffffffffff1614610e5757600080fd5b6006600086815260200190815260200160002060000154600660008781526020019081526020016000206001016006600088815260200190815260200160002060020160066000898152602001908152602001600020600301828054600181600116156101000203166002900480601f016020809104026020016040519081016040528092919081815260200182805460018160011615610100020316600290048015610f455780601f10610f1a57610100808354040283529160200191610f45565b820191906000526020600020905b815481529060010190602001808311610f2857829003601f168201915b50505050509250818054600181600116156101000203166002900480601f016020809104026020016040519081016040528092919081815260200182805460018160011615610100020316600290048015610fe15780601f10610fb657610100808354040283529160200191610fe1565b820191906000526020600020905b815481529060010190602001808311610fc457829003601f168201915b50505050509150808054600181600116156101000203166002900480601f01602080910402602001604051908101604052809291908181526020018280546001816001161561010002031660029004801561107d5780601f106110525761010080835404028352916020019161107d565b820191906000526020600020905b81548152906001019060200180831161106057829003601f168201915b5050505050905093509350935093509193509193565b828054600181600116156101000203166002900490600052602060002090601f016020900481019282601f106110d457805160ff1916838001178555611102565b82800160010185558215611102579182015b828111156111015782518255916020019190600101906110e6565b5b50905061110f91906111bb565b5090565b6040518060800160405280600081526020016060815260200160608152602001606081525090565b828054600181600116156101000203166002900490600052602060002090601f016020900481019282601f1061117c57805160ff19168380011785556111aa565b828001600101855582156111aa579182015b828111156111a957825182559160200191906001019061118e565b5b5090506111b791906111bb565b5090565b6111dd91905b808211156111d95760008160009055506001016111c1565b5090565b90565b600082601f8301126111f157600080fd5b81356112046111ff82611722565b6116f5565b9150808252602083016020830185838301111561122057600080fd5b61122b8382846117fb565b50505092915050565b6000813590506112438161184e565b92915050565b600080600080600080600060e0888a03121561126457600080fd5b600088013567ffffffffffffffff81111561127e57600080fd5b61128a8a828b016111e0565b975050602061129b8a828b01611234565b965050604088013567ffffffffffffffff8111156112b857600080fd5b6112c48a828b016111e0565b955050606088013567ffffffffffffffff8111156112e157600080fd5b6112ed8a828b016111e0565b945050608088013567ffffffffffffffff81111561130a57600080fd5b6113168a828b016111e0565b93505060a088013567ffffffffffffffff81111561133357600080fd5b61133f8a828b016111e0565b92505060c088013567ffffffffffffffff81111561135c57600080fd5b6113688a828b016111e0565b91505092959891949750929550565b60006020828403121561138957600080fd5b600061139784828501611234565b91505092915050565b60006113ac83836114e3565b905092915050565b6113bd816117bf565b82525050565b60006113ce8261175e565b6113d8818561178c565b9350836020820285016113ea8561174e565b8060005b85811015611426578484038952815161140785826113a0565b94506114128361177f565b925060208a019950506001810190506113ee565b50829750879550505050505092915050565b600061144382611774565b61144d81856117ae565b935061145d81856020860161180a565b6114668161183d565b840191505092915050565b600061147c82611769565b611486818561179d565b935061149681856020860161180a565b61149f8161183d565b840191505092915050565b60006114b582611769565b6114bf81856117ae565b93506114cf81856020860161180a565b6114d88161183d565b840191505092915050565b60006080830160008301516114fb6000860182611554565b50602083015184820360208601526115138282611471565b9150506040830151848203604086015261152d8282611471565b915050606083015184820360608601526115478282611471565b9150508091505092915050565b61155d816117f1565b82525050565b61156c816117f1565b82525050565b6000602082019050818103600083015261158c81846113c3565b905092915050565b600060c08201905081810360008301526115ae8189611438565b90506115bd6020830188611563565b81810360408301526115cf8187611438565b905081810360608301526115e38186611438565b90506115f260808301856113b4565b6115ff60a0830184611563565b979650505050505050565b600060c082019050818103600083015261162481896114aa565b90506116336020830188611563565b818103604083015261164581876114aa565b9050818103606083015261165981866114aa565b905061166860808301856113b4565b61167560a0830184611563565b979650505050505050565b60006020820190506116956000830184611563565b92915050565b60006080820190506116b06000830187611563565b81810360208301526116c28186611438565b905081810360408301526116d68185611438565b905081810360608301526116ea8184611438565b905095945050505050565b6000604051905081810181811067ffffffffffffffff8211171561171857600080fd5b8060405250919050565b600067ffffffffffffffff82111561173957600080fd5b601f19601f8301169050602081019050919050565b6000819050602082019050919050565b600081519050919050565b600081519050919050565b600081519050919050565b6000602082019050919050565b600082825260208201905092915050565b600082825260208201905092915050565b600082825260208201905092915050565b60006117ca826117d1565b9050919050565b600073ffffffffffffffffffffffffffffffffffffffff82169050919050565b6000819050919050565b82818337600083830152505050565b60005b8381101561182857808201518184015260208101905061180d565b83811115611837576000848401525b50505050565b6000601f19601f8301169050919050565b611857816117f1565b811461186257600080fd5b5056fea365627a7a723158205e9dde47922c248f6ad515b9a2baa6a22519155910272ad5d0e0190bcf8d60ea6c6578706572696d656e74616cf564736f6c63430005100040",
  "source": "pragma solidity 0.5.16;\npragma experimental ABIEncoderV2;\n\ncontract supply_Chain {\n   \n    uint public _p_id =0;\n    uint public _u_id =0;\n    uint public _t_id=0;\n\n    address _owner;\n     struct product {\n       \n        string _product_name;\n        uint _product_cost;\n        string _product_specs;\n        string _product_review;\n        address _product_owner;\n        uint _manufacture_date;\n      \n    }\n\n    struct Location {\n\n         uint _product_id;\n         string zipcode;\n         string currentAddr;\n         string locType;// wareshouse, seller, transit\n        // string coordinates; //gps coordinates\n\n    }\n\n    struct track_product {\n      \n        uint _product_id;\n        uint _owner_id;\n        address _product_owner;\n        uint _timeStamp;\n        Location location;\n\n    }\n\n    constructor() public {\n       \n        _owner = msg.sender;\n\n        Location memory loc1 = Location(121, \"_zipcode1\", \"_currentAddr1\", \"_locType1\");\n        Location memory loc2 = Location(122, \"_zipcode2\", \"_currentAddr2\", \"_locType2\");\n\n        tracks[101].push(loc1);\n        tracks[101].push(loc2);\n\n        currentLocation[101] = loc1;\n\n    }\n\n    event AddProduct(uint _product_id, string zipcode, string currentAddr, string locType);\n\n    mapping(uint => address) prodToOwnerMapping; //prod to owner mapping\n\n    mapping(uint => Location[]) tracks;\n\n    mapping(uint => Location) currentLocation; //product current location..\n\n    mapping(uint => product) public products; // prod id and product mapping.\n\n    modifier onlyOwner(uint pid) {\n        require(msg.sender != products[pid]._product_owner);\n         _;\n     }\n    \n    function newProduct(string memory name ,uint p_cost ,string memory p_specs ,string memory p_review,string memory _zipcode, string memory _currentAddr,\n                        string memory _locType) public returns (uint) {\n   \n            uint product_id = _p_id++;\n           \n            products[product_id]._product_name = name;\n            products[product_id]._product_cost = p_cost;\n            products[product_id]._product_specs =p_specs;\n            products[product_id]._product_review =p_review;\n            products[product_id]._product_owner = msg.sender;//assuming product owner enter the product.\n            products[product_id]._manufacture_date = now;\n            \n            \n\n            prodToOwnerMapping[product_id] == msg.sender;\n\n            Location memory currentLoc = Location(product_id, _zipcode, _currentAddr, _locType);\n            currentLocation[product_id] = currentLoc;\n            tracks[product_id].push(currentLoc);\n\n            emit AddProduct(product_id, _zipcode,  _currentAddr,  _locType);\n\n            return product_id;\n\n    }\n\n    \n    function getProduct_details(uint prod_id) public view returns (string memory, uint, string memory, string memory, address, uint ) \n             {\n     \n            require(prodToOwnerMapping[prod_id] == msg.sender);\n            require(_owner == msg.sender);\n            \n            return (products[prod_id]._product_name,\n                products[prod_id]._product_cost,  \n                products[prod_id]._product_specs,\n                products[prod_id]._product_review,\n                products[prod_id]._product_owner,\n                products[prod_id]._manufacture_date\n                );\n    }\n\n\n    function getRecentProductLocation(uint _pId) public view returns(uint, string memory, string memory, string memory) {\n            \n            require(prodToOwnerMapping[_pId] == msg.sender);\n            require(_owner == msg.sender);\n            return (currentLocation[_pId]._product_id, currentLocation[_pId].zipcode, currentLocation[_pId].currentAddr,  currentLocation[_pId].locType) ;     \n    }\n    \n   \n   function getAllProductLocation(uint _pId) public view returns(Location[] memory) {\n\n            require(prodToOwnerMapping[_pId] == msg.sender);\n            require(_owner == msg.sender);\n            return tracks[_pId];\n            //  return (currentLocation[_pId]._product_id, currentLocation[_pId].zipcode, currentLocation[_pId].currentAddr,  currentLocation[_pId].locType) ;     \n    }\n    \n}",
  "sourcePath": "/Users/conduent/assignments/IotaFoundationAssignment/contracts/SupplyChain.sol",
  "compiler": {
    "name": "solc",
    "version": "0.5.16+commit.9c3226ce.Emscripten.clang"
  },
  "schemaVersion": "3.4.0",
  "updatedAt": "2021-06-14T16:47:03.705Z",
  "devdoc": {
    "methods": {}
  },
  "userdoc": {
    "methods": {}
  }
}